{
	"contracts/errorHandling.sol": {
		"Test": {
			"abi": [
				{
					"inputs": [
						{
							"internalType": "uint256",
							"name": "a",
							"type": "uint256"
						}
					],
					"name": "checkEven",
					"outputs": [
						{
							"internalType": "bool",
							"name": "",
							"type": "bool"
						}
					],
					"stateMutability": "pure",
					"type": "function"
				},
				{
					"inputs": [
						{
							"internalType": "uint256",
							"name": "a",
							"type": "uint256"
						}
					],
					"name": "double",
					"outputs": [
						{
							"internalType": "uint256",
							"name": "",
							"type": "uint256"
						}
					],
					"stateMutability": "pure",
					"type": "function"
				},
				{
					"inputs": [
						{
							"internalType": "uint256",
							"name": "a",
							"type": "uint256"
						}
					],
					"name": "square",
					"outputs": [
						{
							"internalType": "uint256",
							"name": "",
							"type": "uint256"
						}
					],
					"stateMutability": "pure",
					"type": "function"
				}
			],
			"devdoc": {
				"kind": "dev",
				"methods": {},
				"version": 1
			},
			"evm": {
				"assembly": "    /* \"contracts/errorHandling.sol\":57:530  contract Test {... */\n  mstore(0x40, 0x80)\n  callvalue\n  dup1\n  iszero\n  tag_1\n  jumpi\n  0x00\n  dup1\n  revert\ntag_1:\n  pop\n  dataSize(sub_0)\n  dup1\n  dataOffset(sub_0)\n  0x00\n  codecopy\n  0x00\n  return\nstop\n\nsub_0: assembly {\n        /* \"contracts/errorHandling.sol\":57:530  contract Test {... */\n      mstore(0x40, 0x80)\n      callvalue\n      dup1\n      iszero\n      tag_1\n      jumpi\n      0x00\n      dup1\n      revert\n    tag_1:\n      pop\n      jumpi(tag_2, lt(calldatasize, 0x04))\n      shr(0xe0, calldataload(0x00))\n      dup1\n      0x6ffb5c0a\n      eq\n      tag_3\n      jumpi\n      dup1\n      0x7b292909\n      eq\n      tag_4\n      jumpi\n      dup1\n      0xeee97206\n      eq\n      tag_5\n      jumpi\n    tag_2:\n      0x00\n      dup1\n      revert\n        /* \"contracts/errorHandling.sol\":371:528  function checkEven(uint a) public pure returns(bool) {... */\n    tag_3:\n      tag_6\n      0x04\n      dup1\n      calldatasize\n      sub\n      dup2\n      add\n      swap1\n      tag_7\n      swap2\n      swap1\n      tag_8\n      jump\t// in\n    tag_7:\n      tag_9\n      jump\t// in\n    tag_6:\n      mload(0x40)\n      tag_10\n      swap2\n      swap1\n      tag_11\n      jump\t// in\n    tag_10:\n      mload(0x40)\n      dup1\n      swap2\n      sub\n      swap1\n      return\n        /* \"contracts/errorHandling.sol\":235:366  function square(uint a) public pure returns(uint) {... */\n    tag_4:\n      tag_12\n      0x04\n      dup1\n      calldatasize\n      sub\n      dup2\n      add\n      swap1\n      tag_13\n      swap2\n      swap1\n      tag_8\n      jump\t// in\n    tag_13:\n      tag_14\n      jump\t// in\n    tag_12:\n      mload(0x40)\n      tag_15\n      swap2\n      swap1\n      tag_16\n      jump\t// in\n    tag_15:\n      mload(0x40)\n      dup1\n      swap2\n      sub\n      swap1\n      return\n        /* \"contracts/errorHandling.sol\":76:230  function double(uint a) public pure returns(uint) {... */\n    tag_5:\n      tag_17\n      0x04\n      dup1\n      calldatasize\n      sub\n      dup2\n      add\n      swap1\n      tag_18\n      swap2\n      swap1\n      tag_8\n      jump\t// in\n    tag_18:\n      tag_19\n      jump\t// in\n    tag_17:\n      mload(0x40)\n      tag_20\n      swap2\n      swap1\n      tag_16\n      jump\t// in\n    tag_20:\n      mload(0x40)\n      dup1\n      swap2\n      sub\n      swap1\n      return\n        /* \"contracts/errorHandling.sol\":371:528  function checkEven(uint a) public pure returns(bool) {... */\n    tag_9:\n        /* \"contracts/errorHandling.sol\":418:422  bool */\n      0x00\n        /* \"contracts/errorHandling.sol\":441:442  0 */\n      dup1\n        /* \"contracts/errorHandling.sol\":436:437  a */\n      dup3\n        /* \"contracts/errorHandling.sol\":436:442  a <= 0 */\n      gt\n        /* \"contracts/errorHandling.sol\":432:498  if (a <= 0) {... */\n      tag_22\n      jumpi\n        /* \"contracts/errorHandling.sol\":455:489  revert(\"a must be greater than 0\") */\n      mload(0x40)\n      0x08c379a000000000000000000000000000000000000000000000000000000000\n      dup2\n      mstore\n      0x04\n      add\n      tag_23\n      swap1\n      tag_24\n      jump\t// in\n    tag_23:\n      mload(0x40)\n      dup1\n      swap2\n      sub\n      swap1\n      revert\n        /* \"contracts/errorHandling.sol\":432:498  if (a <= 0) {... */\n    tag_22:\n        /* \"contracts/errorHandling.sol\":521:522  0 */\n      0x00\n        /* \"contracts/errorHandling.sol\":516:517  2 */\n      0x02\n        /* \"contracts/errorHandling.sol\":512:513  a */\n      dup4\n        /* \"contracts/errorHandling.sol\":512:517  a % 2 */\n      tag_25\n      swap2\n      swap1\n      tag_26\n      jump\t// in\n    tag_25:\n        /* \"contracts/errorHandling.sol\":512:522  a % 2 == 0 */\n      eq\n        /* \"contracts/errorHandling.sol\":505:522  return a % 2 == 0 */\n      swap1\n      pop\n        /* \"contracts/errorHandling.sol\":371:528  function checkEven(uint a) public pure returns(bool) {... */\n      swap2\n      swap1\n      pop\n      jump\t// out\n        /* \"contracts/errorHandling.sol\":235:366  function square(uint a) public pure returns(uint) {... */\n    tag_14:\n        /* \"contracts/errorHandling.sol\":279:283  uint */\n      0x00\n        /* \"contracts/errorHandling.sol\":293:304  uint result */\n      dup1\n        /* \"contracts/errorHandling.sol\":311:312  a */\n      dup3\n        /* \"contracts/errorHandling.sol\":307:308  a */\n      dup4\n        /* \"contracts/errorHandling.sol\":307:312  a * a */\n      tag_28\n      swap2\n      swap1\n      tag_29\n      jump\t// in\n    tag_28:\n        /* \"contracts/errorHandling.sol\":293:312  uint result = a * a */\n      swap1\n      pop\n        /* \"contracts/errorHandling.sol\":337:338  a */\n      dup3\n        /* \"contracts/errorHandling.sol\":327:333  result */\n      dup2\n        /* \"contracts/errorHandling.sol\":327:338  result >= a */\n      lt\n      iszero\n        /* \"contracts/errorHandling.sol\":320:339  assert(result >= a) */\n      tag_30\n      jumpi\n      tag_31\n      tag_32\n      jump\t// in\n    tag_31:\n    tag_30:\n        /* \"contracts/errorHandling.sol\":354:360  result */\n      dup1\n        /* \"contracts/errorHandling.sol\":347:360  return result */\n      swap2\n      pop\n      pop\n        /* \"contracts/errorHandling.sol\":235:366  function square(uint a) public pure returns(uint) {... */\n      swap2\n      swap1\n      pop\n      jump\t// out\n        /* \"contracts/errorHandling.sol\":76:230  function double(uint a) public pure returns(uint) {... */\n    tag_19:\n        /* \"contracts/errorHandling.sol\":120:124  uint */\n      0x00\n        /* \"contracts/errorHandling.sol\":146:147  0 */\n      dup1\n        /* \"contracts/errorHandling.sol\":142:143  a */\n      dup3\n        /* \"contracts/errorHandling.sol\":142:147  a > 0 */\n      gt\n        /* \"contracts/errorHandling.sol\":134:176  require(a > 0, \"a must be greater than 0\") */\n      tag_34\n      jumpi\n      mload(0x40)\n      0x08c379a000000000000000000000000000000000000000000000000000000000\n      dup2\n      mstore\n      0x04\n      add\n      tag_35\n      swap1\n      tag_24\n      jump\t// in\n    tag_35:\n      mload(0x40)\n      dup1\n      swap2\n      sub\n      swap1\n      revert\n    tag_34:\n        /* \"contracts/errorHandling.sol\":184:195  uint result */\n      0x00\n        /* \"contracts/errorHandling.sol\":202:203  2 */\n      0x02\n        /* \"contracts/errorHandling.sol\":198:199  a */\n      dup4\n        /* \"contracts/errorHandling.sol\":198:203  a * 2 */\n      tag_36\n      swap2\n      swap1\n      tag_29\n      jump\t// in\n    tag_36:\n        /* \"contracts/errorHandling.sol\":184:203  uint result = a * 2 */\n      swap1\n      pop\n        /* \"contracts/errorHandling.sol\":218:224  result */\n      dup1\n        /* \"contracts/errorHandling.sol\":211:224  return result */\n      swap2\n      pop\n      pop\n        /* \"contracts/errorHandling.sol\":76:230  function double(uint a) public pure returns(uint) {... */\n      swap2\n      swap1\n      pop\n      jump\t// out\n        /* \"#utility.yul\":88:205   */\n    tag_38:\n        /* \"#utility.yul\":197:198   */\n      0x00\n        /* \"#utility.yul\":194:195   */\n      dup1\n        /* \"#utility.yul\":187:199   */\n      revert\n        /* \"#utility.yul\":334:411   */\n    tag_40:\n        /* \"#utility.yul\":371:378   */\n      0x00\n        /* \"#utility.yul\":400:405   */\n      dup2\n        /* \"#utility.yul\":389:405   */\n      swap1\n      pop\n        /* \"#utility.yul\":334:411   */\n      swap2\n      swap1\n      pop\n      jump\t// out\n        /* \"#utility.yul\":417:539   */\n    tag_41:\n        /* \"#utility.yul\":490:514   */\n      tag_57\n        /* \"#utility.yul\":508:513   */\n      dup2\n        /* \"#utility.yul\":490:514   */\n      tag_40\n      jump\t// in\n    tag_57:\n        /* \"#utility.yul\":483:488   */\n      dup2\n        /* \"#utility.yul\":480:515   */\n      eq\n        /* \"#utility.yul\":470:533   */\n      tag_58\n      jumpi\n        /* \"#utility.yul\":529:530   */\n      0x00\n        /* \"#utility.yul\":526:527   */\n      dup1\n        /* \"#utility.yul\":519:531   */\n      revert\n        /* \"#utility.yul\":470:533   */\n    tag_58:\n        /* \"#utility.yul\":417:539   */\n      pop\n      jump\t// out\n        /* \"#utility.yul\":545:684   */\n    tag_42:\n        /* \"#utility.yul\":591:596   */\n      0x00\n        /* \"#utility.yul\":629:635   */\n      dup2\n        /* \"#utility.yul\":616:636   */\n      calldataload\n        /* \"#utility.yul\":607:636   */\n      swap1\n      pop\n        /* \"#utility.yul\":645:678   */\n      tag_60\n        /* \"#utility.yul\":672:677   */\n      dup2\n        /* \"#utility.yul\":645:678   */\n      tag_41\n      jump\t// in\n    tag_60:\n        /* \"#utility.yul\":545:684   */\n      swap3\n      swap2\n      pop\n      pop\n      jump\t// out\n        /* \"#utility.yul\":690:1019   */\n    tag_8:\n        /* \"#utility.yul\":749:755   */\n      0x00\n        /* \"#utility.yul\":798:800   */\n      0x20\n        /* \"#utility.yul\":786:795   */\n      dup3\n        /* \"#utility.yul\":777:784   */\n      dup5\n        /* \"#utility.yul\":773:796   */\n      sub\n        /* \"#utility.yul\":769:801   */\n      slt\n        /* \"#utility.yul\":766:885   */\n      iszero\n      tag_62\n      jumpi\n        /* \"#utility.yul\":804:883   */\n      tag_63\n      tag_38\n      jump\t// in\n    tag_63:\n        /* \"#utility.yul\":766:885   */\n    tag_62:\n        /* \"#utility.yul\":924:925   */\n      0x00\n        /* \"#utility.yul\":949:1002   */\n      tag_64\n        /* \"#utility.yul\":994:1001   */\n      dup5\n        /* \"#utility.yul\":985:991   */\n      dup3\n        /* \"#utility.yul\":974:983   */\n      dup6\n        /* \"#utility.yul\":970:992   */\n      add\n        /* \"#utility.yul\":949:1002   */\n      tag_42\n      jump\t// in\n    tag_64:\n        /* \"#utility.yul\":939:1002   */\n      swap2\n      pop\n        /* \"#utility.yul\":895:1012   */\n      pop\n        /* \"#utility.yul\":690:1019   */\n      swap3\n      swap2\n      pop\n      pop\n      jump\t// out\n        /* \"#utility.yul\":1025:1115   */\n    tag_43:\n        /* \"#utility.yul\":1059:1066   */\n      0x00\n        /* \"#utility.yul\":1102:1107   */\n      dup2\n        /* \"#utility.yul\":1095:1108   */\n      iszero\n        /* \"#utility.yul\":1088:1109   */\n      iszero\n        /* \"#utility.yul\":1077:1109   */\n      swap1\n      pop\n        /* \"#utility.yul\":1025:1115   */\n      swap2\n      swap1\n      pop\n      jump\t// out\n        /* \"#utility.yul\":1121:1230   */\n    tag_44:\n        /* \"#utility.yul\":1202:1223   */\n      tag_67\n        /* \"#utility.yul\":1217:1222   */\n      dup2\n        /* \"#utility.yul\":1202:1223   */\n      tag_43\n      jump\t// in\n    tag_67:\n        /* \"#utility.yul\":1197:1200   */\n      dup3\n        /* \"#utility.yul\":1190:1224   */\n      mstore\n        /* \"#utility.yul\":1121:1230   */\n      pop\n      pop\n      jump\t// out\n        /* \"#utility.yul\":1236:1446   */\n    tag_11:\n        /* \"#utility.yul\":1323:1327   */\n      0x00\n        /* \"#utility.yul\":1361:1363   */\n      0x20\n        /* \"#utility.yul\":1350:1359   */\n      dup3\n        /* \"#utility.yul\":1346:1364   */\n      add\n        /* \"#utility.yul\":1338:1364   */\n      swap1\n      pop\n        /* \"#utility.yul\":1374:1439   */\n      tag_69\n        /* \"#utility.yul\":1436:1437   */\n      0x00\n        /* \"#utility.yul\":1425:1434   */\n      dup4\n        /* \"#utility.yul\":1421:1438   */\n      add\n        /* \"#utility.yul\":1412:1418   */\n      dup5\n        /* \"#utility.yul\":1374:1439   */\n      tag_44\n      jump\t// in\n    tag_69:\n        /* \"#utility.yul\":1236:1446   */\n      swap3\n      swap2\n      pop\n      pop\n      jump\t// out\n        /* \"#utility.yul\":1452:1570   */\n    tag_45:\n        /* \"#utility.yul\":1539:1563   */\n      tag_71\n        /* \"#utility.yul\":1557:1562   */\n      dup2\n        /* \"#utility.yul\":1539:1563   */\n      tag_40\n      jump\t// in\n    tag_71:\n        /* \"#utility.yul\":1534:1537   */\n      dup3\n        /* \"#utility.yul\":1527:1564   */\n      mstore\n        /* \"#utility.yul\":1452:1570   */\n      pop\n      pop\n      jump\t// out\n        /* \"#utility.yul\":1576:1798   */\n    tag_16:\n        /* \"#utility.yul\":1669:1673   */\n      0x00\n        /* \"#utility.yul\":1707:1709   */\n      0x20\n        /* \"#utility.yul\":1696:1705   */\n      dup3\n        /* \"#utility.yul\":1692:1710   */\n      add\n        /* \"#utility.yul\":1684:1710   */\n      swap1\n      pop\n        /* \"#utility.yul\":1720:1791   */\n      tag_73\n        /* \"#utility.yul\":1788:1789   */\n      0x00\n        /* \"#utility.yul\":1777:1786   */\n      dup4\n        /* \"#utility.yul\":1773:1790   */\n      add\n        /* \"#utility.yul\":1764:1770   */\n      dup5\n        /* \"#utility.yul\":1720:1791   */\n      tag_45\n      jump\t// in\n    tag_73:\n        /* \"#utility.yul\":1576:1798   */\n      swap3\n      swap2\n      pop\n      pop\n      jump\t// out\n        /* \"#utility.yul\":1804:1973   */\n    tag_46:\n        /* \"#utility.yul\":1888:1899   */\n      0x00\n        /* \"#utility.yul\":1922:1928   */\n      dup3\n        /* \"#utility.yul\":1917:1920   */\n      dup3\n        /* \"#utility.yul\":1910:1929   */\n      mstore\n        /* \"#utility.yul\":1962:1966   */\n      0x20\n        /* \"#utility.yul\":1957:1960   */\n      dup3\n        /* \"#utility.yul\":1953:1967   */\n      add\n        /* \"#utility.yul\":1938:1967   */\n      swap1\n      pop\n        /* \"#utility.yul\":1804:1973   */\n      swap3\n      swap2\n      pop\n      pop\n      jump\t// out\n        /* \"#utility.yul\":1979:2153   */\n    tag_47:\n        /* \"#utility.yul\":2119:2145   */\n      0x61206d7573742062652067726561746572207468616e20300000000000000000\n        /* \"#utility.yul\":2115:2116   */\n      0x00\n        /* \"#utility.yul\":2107:2113   */\n      dup3\n        /* \"#utility.yul\":2103:2117   */\n      add\n        /* \"#utility.yul\":2096:2146   */\n      mstore\n        /* \"#utility.yul\":1979:2153   */\n      pop\n      jump\t// out\n        /* \"#utility.yul\":2159:2525   */\n    tag_48:\n        /* \"#utility.yul\":2301:2304   */\n      0x00\n        /* \"#utility.yul\":2322:2389   */\n      tag_77\n        /* \"#utility.yul\":2386:2388   */\n      0x18\n        /* \"#utility.yul\":2381:2384   */\n      dup4\n        /* \"#utility.yul\":2322:2389   */\n      tag_46\n      jump\t// in\n    tag_77:\n        /* \"#utility.yul\":2315:2389   */\n      swap2\n      pop\n        /* \"#utility.yul\":2398:2491   */\n      tag_78\n        /* \"#utility.yul\":2487:2490   */\n      dup3\n        /* \"#utility.yul\":2398:2491   */\n      tag_47\n      jump\t// in\n    tag_78:\n        /* \"#utility.yul\":2516:2518   */\n      0x20\n        /* \"#utility.yul\":2511:2514   */\n      dup3\n        /* \"#utility.yul\":2507:2519   */\n      add\n        /* \"#utility.yul\":2500:2519   */\n      swap1\n      pop\n        /* \"#utility.yul\":2159:2525   */\n      swap2\n      swap1\n      pop\n      jump\t// out\n        /* \"#utility.yul\":2531:2950   */\n    tag_24:\n        /* \"#utility.yul\":2697:2701   */\n      0x00\n        /* \"#utility.yul\":2735:2737   */\n      0x20\n        /* \"#utility.yul\":2724:2733   */\n      dup3\n        /* \"#utility.yul\":2720:2738   */\n      add\n        /* \"#utility.yul\":2712:2738   */\n      swap1\n      pop\n        /* \"#utility.yul\":2784:2793   */\n      dup2\n        /* \"#utility.yul\":2778:2782   */\n      dup2\n        /* \"#utility.yul\":2774:2794   */\n      sub\n        /* \"#utility.yul\":2770:2771   */\n      0x00\n        /* \"#utility.yul\":2759:2768   */\n      dup4\n        /* \"#utility.yul\":2755:2772   */\n      add\n        /* \"#utility.yul\":2748:2795   */\n      mstore\n        /* \"#utility.yul\":2812:2943   */\n      tag_80\n        /* \"#utility.yul\":2938:2942   */\n      dup2\n        /* \"#utility.yul\":2812:2943   */\n      tag_48\n      jump\t// in\n    tag_80:\n        /* \"#utility.yul\":2804:2943   */\n      swap1\n      pop\n        /* \"#utility.yul\":2531:2950   */\n      swap2\n      swap1\n      pop\n      jump\t// out\n        /* \"#utility.yul\":2956:3136   */\n    tag_49:\n        /* \"#utility.yul\":3004:3081   */\n      0x4e487b7100000000000000000000000000000000000000000000000000000000\n        /* \"#utility.yul\":3001:3002   */\n      0x00\n        /* \"#utility.yul\":2994:3082   */\n      mstore\n        /* \"#utility.yul\":3101:3105   */\n      0x12\n        /* \"#utility.yul\":3098:3099   */\n      0x04\n        /* \"#utility.yul\":3091:3106   */\n      mstore\n        /* \"#utility.yul\":3125:3129   */\n      0x24\n        /* \"#utility.yul\":3122:3123   */\n      0x00\n        /* \"#utility.yul\":3115:3130   */\n      revert\n        /* \"#utility.yul\":3142:3318   */\n    tag_26:\n        /* \"#utility.yul\":3174:3175   */\n      0x00\n        /* \"#utility.yul\":3191:3211   */\n      tag_83\n        /* \"#utility.yul\":3209:3210   */\n      dup3\n        /* \"#utility.yul\":3191:3211   */\n      tag_40\n      jump\t// in\n    tag_83:\n        /* \"#utility.yul\":3186:3211   */\n      swap2\n      pop\n        /* \"#utility.yul\":3225:3245   */\n      tag_84\n        /* \"#utility.yul\":3243:3244   */\n      dup4\n        /* \"#utility.yul\":3225:3245   */\n      tag_40\n      jump\t// in\n    tag_84:\n        /* \"#utility.yul\":3220:3245   */\n      swap3\n      pop\n        /* \"#utility.yul\":3264:3265   */\n      dup3\n        /* \"#utility.yul\":3254:3289   */\n      tag_85\n      jumpi\n        /* \"#utility.yul\":3269:3287   */\n      tag_86\n      tag_49\n      jump\t// in\n    tag_86:\n        /* \"#utility.yul\":3254:3289   */\n    tag_85:\n        /* \"#utility.yul\":3310:3311   */\n      dup3\n        /* \"#utility.yul\":3307:3308   */\n      dup3\n        /* \"#utility.yul\":3303:3312   */\n      mod\n        /* \"#utility.yul\":3298:3312   */\n      swap1\n      pop\n        /* \"#utility.yul\":3142:3318   */\n      swap3\n      swap2\n      pop\n      pop\n      jump\t// out\n        /* \"#utility.yul\":3324:3504   */\n    tag_50:\n        /* \"#utility.yul\":3372:3449   */\n      0x4e487b7100000000000000000000000000000000000000000000000000000000\n        /* \"#utility.yul\":3369:3370   */\n      0x00\n        /* \"#utility.yul\":3362:3450   */\n      mstore\n        /* \"#utility.yul\":3469:3473   */\n      0x11\n        /* \"#utility.yul\":3466:3467   */\n      0x04\n        /* \"#utility.yul\":3459:3474   */\n      mstore\n        /* \"#utility.yul\":3493:3497   */\n      0x24\n        /* \"#utility.yul\":3490:3491   */\n      0x00\n        /* \"#utility.yul\":3483:3498   */\n      revert\n        /* \"#utility.yul\":3510:3920   */\n    tag_29:\n        /* \"#utility.yul\":3550:3557   */\n      0x00\n        /* \"#utility.yul\":3573:3593   */\n      tag_89\n        /* \"#utility.yul\":3591:3592   */\n      dup3\n        /* \"#utility.yul\":3573:3593   */\n      tag_40\n      jump\t// in\n    tag_89:\n        /* \"#utility.yul\":3568:3593   */\n      swap2\n      pop\n        /* \"#utility.yul\":3607:3627   */\n      tag_90\n        /* \"#utility.yul\":3625:3626   */\n      dup4\n        /* \"#utility.yul\":3607:3627   */\n      tag_40\n      jump\t// in\n    tag_90:\n        /* \"#utility.yul\":3602:3627   */\n      swap3\n      pop\n        /* \"#utility.yul\":3662:3663   */\n      dup3\n        /* \"#utility.yul\":3659:3660   */\n      dup3\n        /* \"#utility.yul\":3655:3664   */\n      mul\n        /* \"#utility.yul\":3684:3714   */\n      tag_91\n        /* \"#utility.yul\":3702:3713   */\n      dup2\n        /* \"#utility.yul\":3684:3714   */\n      tag_40\n      jump\t// in\n    tag_91:\n        /* \"#utility.yul\":3673:3714   */\n      swap2\n      pop\n        /* \"#utility.yul\":3863:3864   */\n      dup3\n        /* \"#utility.yul\":3854:3861   */\n      dup3\n        /* \"#utility.yul\":3850:3865   */\n      div\n        /* \"#utility.yul\":3847:3848   */\n      dup5\n        /* \"#utility.yul\":3844:3866   */\n      eq\n        /* \"#utility.yul\":3824:3825   */\n      dup4\n        /* \"#utility.yul\":3817:3826   */\n      iszero\n        /* \"#utility.yul\":3797:3880   */\n      or\n        /* \"#utility.yul\":3774:3913   */\n      tag_92\n      jumpi\n        /* \"#utility.yul\":3893:3911   */\n      tag_93\n      tag_50\n      jump\t// in\n    tag_93:\n        /* \"#utility.yul\":3774:3913   */\n    tag_92:\n        /* \"#utility.yul\":3558:3920   */\n      pop\n        /* \"#utility.yul\":3510:3920   */\n      swap3\n      swap2\n      pop\n      pop\n      jump\t// out\n        /* \"#utility.yul\":3926:4106   */\n    tag_32:\n        /* \"#utility.yul\":3974:4051   */\n      0x4e487b7100000000000000000000000000000000000000000000000000000000\n        /* \"#utility.yul\":3971:3972   */\n      0x00\n        /* \"#utility.yul\":3964:4052   */\n      mstore\n        /* \"#utility.yul\":4071:4075   */\n      0x01\n        /* \"#utility.yul\":4068:4069   */\n      0x04\n        /* \"#utility.yul\":4061:4076   */\n      mstore\n        /* \"#utility.yul\":4095:4099   */\n      0x24\n        /* \"#utility.yul\":4092:4093   */\n      0x00\n        /* \"#utility.yul\":4085:4100   */\n      revert\n\n    auxdata: 0xa26469706673582212200d0f1a9c7a63ad81f3457a21d107443b7d2364ff73ccd40fcf7944b87933779864736f6c634300081a0033\n}\n",
				"bytecode": {
					"linkReferences": {},
					"object": "6080604052348015600e575f80fd5b506104158061001c5f395ff3fe608060405234801561000f575f80fd5b506004361061003f575f3560e01c80636ffb5c0a146100435780637b29290914610073578063eee97206146100a3575b5f80fd5b61005d600480360381019061005891906101e9565b6100d3565b60405161006a919061022e565b60405180910390f35b61008d600480360381019061008891906101e9565b61012c565b60405161009a9190610256565b60405180910390f35b6100bd60048036038101906100b891906101e9565b610156565b6040516100ca9190610256565b60405180910390f35b5f808211610116576040517f08c379a000000000000000000000000000000000000000000000000000000000815260040161010d906102c9565b60405180910390fd5b5f6002836101249190610314565b149050919050565b5f80828361013a9190610371565b90508281101561014d5761014c6103b2565b5b80915050919050565b5f808211610199576040517f08c379a0000000000000000000000000000000000000000000000000000000008152600401610190906102c9565b60405180910390fd5b5f6002836101a79190610371565b905080915050919050565b5f80fd5b5f819050919050565b6101c8816101b6565b81146101d2575f80fd5b50565b5f813590506101e3816101bf565b92915050565b5f602082840312156101fe576101fd6101b2565b5b5f61020b848285016101d5565b91505092915050565b5f8115159050919050565b61022881610214565b82525050565b5f6020820190506102415f83018461021f565b92915050565b610250816101b6565b82525050565b5f6020820190506102695f830184610247565b92915050565b5f82825260208201905092915050565b7f61206d7573742062652067726561746572207468616e203000000000000000005f82015250565b5f6102b360188361026f565b91506102be8261027f565b602082019050919050565b5f6020820190508181035f8301526102e0816102a7565b9050919050565b7f4e487b71000000000000000000000000000000000000000000000000000000005f52601260045260245ffd5b5f61031e826101b6565b9150610329836101b6565b925082610339576103386102e7565b5b828206905092915050565b7f4e487b71000000000000000000000000000000000000000000000000000000005f52601160045260245ffd5b5f61037b826101b6565b9150610386836101b6565b9250828202610394816101b6565b915082820484148315176103ab576103aa610344565b5b5092915050565b7f4e487b71000000000000000000000000000000000000000000000000000000005f52600160045260245ffdfea26469706673582212200d0f1a9c7a63ad81f3457a21d107443b7d2364ff73ccd40fcf7944b87933779864736f6c634300081a0033",
					"opcodes": "PUSH1 0x80 PUSH1 0x40 MSTORE CALLVALUE DUP1 ISZERO PUSH1 0xE JUMPI PUSH0 DUP1 REVERT JUMPDEST POP PUSH2 0x415 DUP1 PUSH2 0x1C PUSH0 CODECOPY PUSH0 RETURN INVALID PUSH1 0x80 PUSH1 0x40 MSTORE CALLVALUE DUP1 ISZERO PUSH2 0xF JUMPI PUSH0 DUP1 REVERT JUMPDEST POP PUSH1 0x4 CALLDATASIZE LT PUSH2 0x3F JUMPI PUSH0 CALLDATALOAD PUSH1 0xE0 SHR DUP1 PUSH4 0x6FFB5C0A EQ PUSH2 0x43 JUMPI DUP1 PUSH4 0x7B292909 EQ PUSH2 0x73 JUMPI DUP1 PUSH4 0xEEE97206 EQ PUSH2 0xA3 JUMPI JUMPDEST PUSH0 DUP1 REVERT JUMPDEST PUSH2 0x5D PUSH1 0x4 DUP1 CALLDATASIZE SUB DUP2 ADD SWAP1 PUSH2 0x58 SWAP2 SWAP1 PUSH2 0x1E9 JUMP JUMPDEST PUSH2 0xD3 JUMP JUMPDEST PUSH1 0x40 MLOAD PUSH2 0x6A SWAP2 SWAP1 PUSH2 0x22E JUMP JUMPDEST PUSH1 0x40 MLOAD DUP1 SWAP2 SUB SWAP1 RETURN JUMPDEST PUSH2 0x8D PUSH1 0x4 DUP1 CALLDATASIZE SUB DUP2 ADD SWAP1 PUSH2 0x88 SWAP2 SWAP1 PUSH2 0x1E9 JUMP JUMPDEST PUSH2 0x12C JUMP JUMPDEST PUSH1 0x40 MLOAD PUSH2 0x9A SWAP2 SWAP1 PUSH2 0x256 JUMP JUMPDEST PUSH1 0x40 MLOAD DUP1 SWAP2 SUB SWAP1 RETURN JUMPDEST PUSH2 0xBD PUSH1 0x4 DUP1 CALLDATASIZE SUB DUP2 ADD SWAP1 PUSH2 0xB8 SWAP2 SWAP1 PUSH2 0x1E9 JUMP JUMPDEST PUSH2 0x156 JUMP JUMPDEST PUSH1 0x40 MLOAD PUSH2 0xCA SWAP2 SWAP1 PUSH2 0x256 JUMP JUMPDEST PUSH1 0x40 MLOAD DUP1 SWAP2 SUB SWAP1 RETURN JUMPDEST PUSH0 DUP1 DUP3 GT PUSH2 0x116 JUMPI PUSH1 0x40 MLOAD PUSH32 0x8C379A000000000000000000000000000000000000000000000000000000000 DUP2 MSTORE PUSH1 0x4 ADD PUSH2 0x10D SWAP1 PUSH2 0x2C9 JUMP JUMPDEST PUSH1 0x40 MLOAD DUP1 SWAP2 SUB SWAP1 REVERT JUMPDEST PUSH0 PUSH1 0x2 DUP4 PUSH2 0x124 SWAP2 SWAP1 PUSH2 0x314 JUMP JUMPDEST EQ SWAP1 POP SWAP2 SWAP1 POP JUMP JUMPDEST PUSH0 DUP1 DUP3 DUP4 PUSH2 0x13A SWAP2 SWAP1 PUSH2 0x371 JUMP JUMPDEST SWAP1 POP DUP3 DUP2 LT ISZERO PUSH2 0x14D JUMPI PUSH2 0x14C PUSH2 0x3B2 JUMP JUMPDEST JUMPDEST DUP1 SWAP2 POP POP SWAP2 SWAP1 POP JUMP JUMPDEST PUSH0 DUP1 DUP3 GT PUSH2 0x199 JUMPI PUSH1 0x40 MLOAD PUSH32 0x8C379A000000000000000000000000000000000000000000000000000000000 DUP2 MSTORE PUSH1 0x4 ADD PUSH2 0x190 SWAP1 PUSH2 0x2C9 JUMP JUMPDEST PUSH1 0x40 MLOAD DUP1 SWAP2 SUB SWAP1 REVERT JUMPDEST PUSH0 PUSH1 0x2 DUP4 PUSH2 0x1A7 SWAP2 SWAP1 PUSH2 0x371 JUMP JUMPDEST SWAP1 POP DUP1 SWAP2 POP POP SWAP2 SWAP1 POP JUMP JUMPDEST PUSH0 DUP1 REVERT JUMPDEST PUSH0 DUP2 SWAP1 POP SWAP2 SWAP1 POP JUMP JUMPDEST PUSH2 0x1C8 DUP2 PUSH2 0x1B6 JUMP JUMPDEST DUP2 EQ PUSH2 0x1D2 JUMPI PUSH0 DUP1 REVERT JUMPDEST POP JUMP JUMPDEST PUSH0 DUP2 CALLDATALOAD SWAP1 POP PUSH2 0x1E3 DUP2 PUSH2 0x1BF JUMP JUMPDEST SWAP3 SWAP2 POP POP JUMP JUMPDEST PUSH0 PUSH1 0x20 DUP3 DUP5 SUB SLT ISZERO PUSH2 0x1FE JUMPI PUSH2 0x1FD PUSH2 0x1B2 JUMP JUMPDEST JUMPDEST PUSH0 PUSH2 0x20B DUP5 DUP3 DUP6 ADD PUSH2 0x1D5 JUMP JUMPDEST SWAP2 POP POP SWAP3 SWAP2 POP POP JUMP JUMPDEST PUSH0 DUP2 ISZERO ISZERO SWAP1 POP SWAP2 SWAP1 POP JUMP JUMPDEST PUSH2 0x228 DUP2 PUSH2 0x214 JUMP JUMPDEST DUP3 MSTORE POP POP JUMP JUMPDEST PUSH0 PUSH1 0x20 DUP3 ADD SWAP1 POP PUSH2 0x241 PUSH0 DUP4 ADD DUP5 PUSH2 0x21F JUMP JUMPDEST SWAP3 SWAP2 POP POP JUMP JUMPDEST PUSH2 0x250 DUP2 PUSH2 0x1B6 JUMP JUMPDEST DUP3 MSTORE POP POP JUMP JUMPDEST PUSH0 PUSH1 0x20 DUP3 ADD SWAP1 POP PUSH2 0x269 PUSH0 DUP4 ADD DUP5 PUSH2 0x247 JUMP JUMPDEST SWAP3 SWAP2 POP POP JUMP JUMPDEST PUSH0 DUP3 DUP3 MSTORE PUSH1 0x20 DUP3 ADD SWAP1 POP SWAP3 SWAP2 POP POP JUMP JUMPDEST PUSH32 0x61206D7573742062652067726561746572207468616E20300000000000000000 PUSH0 DUP3 ADD MSTORE POP JUMP JUMPDEST PUSH0 PUSH2 0x2B3 PUSH1 0x18 DUP4 PUSH2 0x26F JUMP JUMPDEST SWAP2 POP PUSH2 0x2BE DUP3 PUSH2 0x27F JUMP JUMPDEST PUSH1 0x20 DUP3 ADD SWAP1 POP SWAP2 SWAP1 POP JUMP JUMPDEST PUSH0 PUSH1 0x20 DUP3 ADD SWAP1 POP DUP2 DUP2 SUB PUSH0 DUP4 ADD MSTORE PUSH2 0x2E0 DUP2 PUSH2 0x2A7 JUMP JUMPDEST SWAP1 POP SWAP2 SWAP1 POP JUMP JUMPDEST PUSH32 0x4E487B7100000000000000000000000000000000000000000000000000000000 PUSH0 MSTORE PUSH1 0x12 PUSH1 0x4 MSTORE PUSH1 0x24 PUSH0 REVERT JUMPDEST PUSH0 PUSH2 0x31E DUP3 PUSH2 0x1B6 JUMP JUMPDEST SWAP2 POP PUSH2 0x329 DUP4 PUSH2 0x1B6 JUMP JUMPDEST SWAP3 POP DUP3 PUSH2 0x339 JUMPI PUSH2 0x338 PUSH2 0x2E7 JUMP JUMPDEST JUMPDEST DUP3 DUP3 MOD SWAP1 POP SWAP3 SWAP2 POP POP JUMP JUMPDEST PUSH32 0x4E487B7100000000000000000000000000000000000000000000000000000000 PUSH0 MSTORE PUSH1 0x11 PUSH1 0x4 MSTORE PUSH1 0x24 PUSH0 REVERT JUMPDEST PUSH0 PUSH2 0x37B DUP3 PUSH2 0x1B6 JUMP JUMPDEST SWAP2 POP PUSH2 0x386 DUP4 PUSH2 0x1B6 JUMP JUMPDEST SWAP3 POP DUP3 DUP3 MUL PUSH2 0x394 DUP2 PUSH2 0x1B6 JUMP JUMPDEST SWAP2 POP DUP3 DUP3 DIV DUP5 EQ DUP4 ISZERO OR PUSH2 0x3AB JUMPI PUSH2 0x3AA PUSH2 0x344 JUMP JUMPDEST JUMPDEST POP SWAP3 SWAP2 POP POP JUMP JUMPDEST PUSH32 0x4E487B7100000000000000000000000000000000000000000000000000000000 PUSH0 MSTORE PUSH1 0x1 PUSH1 0x4 MSTORE PUSH1 0x24 PUSH0 REVERT INVALID LOG2 PUSH5 0x6970667358 0x22 SLT KECCAK256 0xD 0xF BYTE SWAP13 PUSH27 0x63AD81F3457A21D107443B7D2364FF73CCD40FCF7944B879337798 PUSH5 0x736F6C6343 STOP ADDMOD BYTE STOP CALLER "
				},
				"gasEstimates": {
					"creation": {
						"codeDepositCost": "209000",
						"executionCost": "249",
						"totalCost": "209249"
					},
					"external": {
						"checkEven(uint256)": "infinite",
						"double(uint256)": "infinite",
						"square(uint256)": "infinite"
					}
				},
				"methodIdentifiers": {
					"checkEven(uint256)": "6ffb5c0a",
					"double(uint256)": "eee97206",
					"square(uint256)": "7b292909"
				}
			},
			"storageLayout": {
				"storage": [],
				"types": null
			},
			"userdoc": {
				"kind": "user",
				"methods": {},
				"version": 1
			}
		}
	}
}